{
  "contractName": "SimpleStorage",
  "abi": [
    {
      "constant": false,
      "inputs": [
        {
          "name": "hashfile",
          "type": "string"
        }
      ],
      "name": "setData",
      "outputs": [],
      "payable": false,
      "stateMutability": "nonpayable",
      "type": "function"
    },
    {
      "constant": true,
      "inputs": [],
      "name": "getData",
      "outputs": [
        {
          "name": "",
          "type": "string"
        }
      ],
      "payable": false,
      "stateMutability": "view",
      "type": "function"
    }
  ],
  "bytecode": "0x608060405234801561001057600080fd5b50610330806100206000396000f3fe608060405260043610610046576000357c0100000000000000000000000000000000000000000000000000000000900480633bc5de301461004b57806347064d6a146100db575b600080fd5b34801561005757600080fd5b506100606101a3565b6040518080602001828103825283818151815260200191508051906020019080838360005b838110156100a0578082015181840152602081019050610085565b50505050905090810190601f1680156100cd5780820380516001836020036101000a031916815260200191505b509250505060405180910390f35b3480156100e757600080fd5b506101a1600480360360208110156100fe57600080fd5b810190808035906020019064010000000081111561011b57600080fd5b82018360208201111561012d57600080fd5b8035906020019184600183028401116401000000008311171561014f57600080fd5b91908080601f016020809104026020016040519081016040528093929190818152602001838380828437600081840152601f19601f820116905080830192505050505050509192919290505050610245565b005b606060008054600181600116156101000203166002900480601f01602080910402602001604051908101604052809291908181526020018280546001816001161561010002031660029004801561023b5780601f106102105761010080835404028352916020019161023b565b820191906000526020600020905b81548152906001019060200180831161021e57829003601f168201915b5050505050905090565b806000908051906020019061025b92919061025f565b5050565b828054600181600116156101000203166002900490600052602060002090601f016020900481019282601f106102a057805160ff19168380011785556102ce565b828001600101855582156102ce579182015b828111156102cd5782518255916020019190600101906102b2565b5b5090506102db91906102df565b5090565b61030191905b808211156102fd5760008160009055506001016102e5565b5090565b9056fea165627a7a72305820d1d834e96fed3936abece2d60f1eb4d365b481a198297e4e3d61908b5cca2f3b0029",
  "source": "pragma solidity ^0.5.0;\r\n\r\ncontract SimpleStorage {\r\n    string filehash;\r\n    \r\n    function setData(string memory hashfile) public {\r\n        filehash=hashfile;\r\n    }\r\n    \r\n    function getData() public view returns (string memory){\r\n        return filehash;\r\n    } \r\n}",
  "sourcePath": "C:/Users/Harish/Desktop/BEproject/contracts/SimpleStorage.sol",
  "compiler": {
    "name": "solc",
    "version": "0.5.1+commit.c8a2cb62.Emscripten.clang"
  },
  "schemaVersion": "3.0.20",
  "updatedAt": "2020-02-18T05:29:24.196Z",
  "networkType": "ethereum",
  "devdoc": {
    "methods": {}
  },
  "userdoc": {
    "methods": {}
  }
}